{"abi":[{"type":"constructor","inputs":[{"name":"_name","type":"string","internalType":"string"},{"name":"_symbol","type":"string","internalType":"string"},{"name":"_decimals","type":"uint8","internalType":"uint8"}],"stateMutability":"nonpayable"},{"type":"function","name":"allowance","inputs":[{"name":"","type":"address","internalType":"address"},{"name":"","type":"address","internalType":"address"}],"outputs":[{"name":"","type":"uint256","internalType":"uint256"}],"stateMutability":"view"},{"type":"function","name":"approve","inputs":[{"name":"spender","type":"address","internalType":"address"},{"name":"amount","type":"uint256","internalType":"uint256"}],"outputs":[{"name":"","type":"bool","internalType":"bool"}],"stateMutability":"nonpayable"},{"type":"function","name":"balanceOf","inputs":[{"name":"","type":"address","internalType":"address"}],"outputs":[{"name":"","type":"uint256","internalType":"uint256"}],"stateMutability":"view"},{"type":"function","name":"decimals","inputs":[],"outputs":[{"name":"","type":"uint8","internalType":"uint8"}],"stateMutability":"view"},{"type":"function","name":"mintToken","inputs":[{"name":"to","type":"address","internalType":"address"},{"name":"amount","type":"uint256","internalType":"uint256"}],"outputs":[],"stateMutability":"nonpayable"},{"type":"function","name":"name","inputs":[],"outputs":[{"name":"","type":"string","internalType":"string"}],"stateMutability":"view"},{"type":"function","name":"owner","inputs":[],"outputs":[{"name":"","type":"address","internalType":"address"}],"stateMutability":"view"},{"type":"function","name":"symbol","inputs":[],"outputs":[{"name":"","type":"string","internalType":"string"}],"stateMutability":"view"},{"type":"function","name":"totalSupply","inputs":[],"outputs":[{"name":"","type":"uint256","internalType":"uint256"}],"stateMutability":"view"},{"type":"function","name":"transfer","inputs":[{"name":"to","type":"address","internalType":"address"},{"name":"amount","type":"uint256","internalType":"uint256"}],"outputs":[{"name":"","type":"bool","internalType":"bool"}],"stateMutability":"nonpayable"},{"type":"function","name":"transferFrom","inputs":[{"name":"from","type":"address","internalType":"address"},{"name":"to","type":"address","internalType":"address"},{"name":"amount","type":"uint256","internalType":"uint256"}],"outputs":[{"name":"","type":"bool","internalType":"bool"}],"stateMutability":"nonpayable"},{"type":"event","name":"Approval","inputs":[{"name":"owner","type":"address","indexed":true,"internalType":"address"},{"name":"spender","type":"address","indexed":true,"internalType":"address"},{"name":"amount","type":"uint256","indexed":false,"internalType":"uint256"}],"anonymous":false},{"type":"event","name":"Transfer","inputs":[{"name":"from","type":"address","indexed":true,"internalType":"address"},{"name":"to","type":"address","indexed":true,"internalType":"address"},{"name":"amount","type":"uint256","indexed":false,"internalType":"uint256"}],"anonymous":false}],"bytecode":{"object":"0x608060405234801561000f575f5ffd5b5060405161164b38038061164b83398181016040528101906100319190610237565b826003908161004091906104cf565b50816004908161005091906104cf565b508060055f6101000a81548160ff021916908360ff16021790555033600560016101000a81548173ffffffffffffffffffffffffffffffffffffffff021916908373ffffffffffffffffffffffffffffffffffffffff16021790555050505061059e565b5f604051905090565b5f5ffd5b5f5ffd5b5f5ffd5b5f5ffd5b5f601f19601f8301169050919050565b7f4e487b71000000000000000000000000000000000000000000000000000000005f52604160045260245ffd5b610113826100cd565b810181811067ffffffffffffffff82111715610132576101316100dd565b5b80604052505050565b5f6101446100b4565b9050610150828261010a565b919050565b5f67ffffffffffffffff82111561016f5761016e6100dd565b5b610178826100cd565b9050602081019050919050565b8281835e5f83830152505050565b5f6101a56101a084610155565b61013b565b9050828152602081018484840111156101c1576101c06100c9565b5b6101cc848285610185565b509392505050565b5f82601f8301126101e8576101e76100c5565b5b81516101f8848260208601610193565b91505092915050565b5f60ff82169050919050565b61021681610201565b8114610220575f5ffd5b50565b5f815190506102318161020d565b92915050565b5f5f5f6060848603121561024e5761024d6100bd565b5b5f84015167ffffffffffffffff81111561026b5761026a6100c1565b5b610277868287016101d4565b935050602084015167ffffffffffffffff811115610298576102976100c1565b5b6102a4868287016101d4565b92505060406102b586828701610223565b9150509250925092565b5f81519050919050565b7f4e487b71000000000000000000000000000000000000000000000000000000005f52602260045260245ffd5b5f600282049050600182168061030d57607f821691505b6020821081036103205761031f6102c9565b5b50919050565b5f819050815f5260205f209050919050565b5f6020601f8301049050919050565b5f82821b905092915050565b5f600883026103827fffffffffffffffffffffffffffffffffffffffffffffffffffffffffffffffff82610347565b61038c8683610347565b95508019841693508086168417925050509392505050565b5f819050919050565b5f819050919050565b5f6103d06103cb6103c6846103a4565b6103ad565b6103a4565b9050919050565b5f819050919050565b6103e9836103b6565b6103fd6103f5826103d7565b848454610353565b825550505050565b5f5f905090565b610414610405565b61041f8184846103e0565b505050565b5b81811015610442576104375f8261040c565b600181019050610425565b5050565b601f8211156104875761045881610326565b61046184610338565b81016020851015610470578190505b61048461047c85610338565b830182610424565b50505b505050565b5f82821c905092915050565b5f6104a75f198460080261048c565b1980831691505092915050565b5f6104bf8383610498565b9150826002028217905092915050565b6104d8826102bf565b67ffffffffffffffff8111156104f1576104f06100dd565b5b6104fb82546102f6565b610506828285610446565b5f60209050601f831160018114610537575f8415610525578287015190505b61052f85826104b4565b865550610596565b601f19841661054586610326565b5f5b8281101561056c57848901518255600182019150602085019450602081019050610547565b868310156105895784890151610585601f891682610498565b8355505b6001600288020188555050505b505050505050565b6110a0806105ab5f395ff3fe608060405234801561000f575f5ffd5b50600436106100a7575f3560e01c806370a082311161006f57806370a082311461016557806379c65068146101955780638da5cb5b146101b157806395d89b41146101cf578063a9059cbb146101ed578063dd62ed3e1461021d576100a7565b806306fdde03146100ab578063095ea7b3146100c957806318160ddd146100f957806323b872dd14610117578063313ce56714610147575b5f5ffd5b6100b361024d565b6040516100c09190610b7b565b60405180910390f35b6100e360048036038101906100de9190610c2c565b6102d9565b6040516100f09190610c84565b60405180910390f35b610101610434565b60405161010e9190610cac565b60405180910390f35b610131600480360381019061012c9190610cc5565b610439565b60405161013e9190610c84565b60405180910390f35b61014f610719565b60405161015c9190610d30565b60405180910390f35b61017f600480360381019061017a9190610d49565b61072b565b60405161018c9190610cac565b60405180910390f35b6101af60048036038101906101aa9190610c2c565b610740565b005b6101b96108a3565b6040516101c69190610d83565b60405180910390f35b6101d76108c9565b6040516101e49190610b7b565b60405180910390f35b61020760048036038101906102029190610c2c565b610955565b6040516102149190610c84565b60405180910390f35b61023760048036038101906102329190610d9c565b610aeb565b6040516102449190610cac565b60405180910390f35b6003805461025a90610e07565b80601f016020809104026020016040519081016040528092919081815260200182805461028690610e07565b80156102d15780601f106102a8576101008083540402835291602001916102d1565b820191905f5260205f20905b8154815290600101906020018083116102b457829003601f168201915b505050505081565b5f5f73ffffffffffffffffffffffffffffffffffffffff168373ffffffffffffffffffffffffffffffffffffffff1603610348576040517f08c379a000000000000000000000000000000000000000000000000000000000815260040161033f90610e81565b60405180910390fd5b8160025f3373ffffffffffffffffffffffffffffffffffffffff1673ffffffffffffffffffffffffffffffffffffffff1681526020019081526020015f205f8573ffffffffffffffffffffffffffffffffffffffff1673ffffffffffffffffffffffffffffffffffffffff1681526020019081526020015f20819055508273ffffffffffffffffffffffffffffffffffffffff163373ffffffffffffffffffffffffffffffffffffffff167f8c5be1e5ebec7d5bd14f71427d1e84f3dd0314c0f7b2291e5b200ac8c7c3b925846040516104229190610cac565b60405180910390a36001905092915050565b5f5481565b5f8160025f8673ffffffffffffffffffffffffffffffffffffffff1673ffffffffffffffffffffffffffffffffffffffff1681526020019081526020015f205f3373ffffffffffffffffffffffffffffffffffffffff1673ffffffffffffffffffffffffffffffffffffffff1681526020019081526020015f205410156104f5576040517f08c379a00000000000000000000000000000000000000000000000000000000081526004016104ec90610ee9565b60405180910390fd5b8160015f8673ffffffffffffffffffffffffffffffffffffffff1673ffffffffffffffffffffffffffffffffffffffff1681526020019081526020015f20541015610575576040517f08c379a000000000000000000000000000000000000000000000000000000000815260040161056c90610f51565b60405180910390fd5b8160025f8673ffffffffffffffffffffffffffffffffffffffff1673ffffffffffffffffffffffffffffffffffffffff1681526020019081526020015f205f3373ffffffffffffffffffffffffffffffffffffffff1673ffffffffffffffffffffffffffffffffffffffff1681526020019081526020015f205f8282546105fc9190610f9c565b925050819055508160015f8673ffffffffffffffffffffffffffffffffffffffff1673ffffffffffffffffffffffffffffffffffffffff1681526020019081526020015f205f82825461064f9190610f9c565b925050819055508160015f8573ffffffffffffffffffffffffffffffffffffffff1673ffffffffffffffffffffffffffffffffffffffff1681526020019081526020015f205f8282546106a29190610fcf565b925050819055508273ffffffffffffffffffffffffffffffffffffffff168473ffffffffffffffffffffffffffffffffffffffff167fddf252ad1be2c89b69c2b068fc378daa952ba7f163c4a11628f55a4df523b3ef846040516107069190610cac565b60405180910390a3600190509392505050565b60055f9054906101000a900460ff1681565b6001602052805f5260405f205f915090505481565b600560019054906101000a900473ffffffffffffffffffffffffffffffffffffffff1673ffffffffffffffffffffffffffffffffffffffff163373ffffffffffffffffffffffffffffffffffffffff16146107d0576040517f08c379a00000000000000000000000000000000000000000000000000000000081526004016107c79061104c565b60405180910390fd5b8060015f8473ffffffffffffffffffffffffffffffffffffffff1673ffffffffffffffffffffffffffffffffffffffff1681526020019081526020015f205f82825461081c9190610fcf565b92505081905550805f5f8282546108339190610fcf565b925050819055508173ffffffffffffffffffffffffffffffffffffffff165f73ffffffffffffffffffffffffffffffffffffffff167fddf252ad1be2c89b69c2b068fc378daa952ba7f163c4a11628f55a4df523b3ef836040516108979190610cac565b60405180910390a35050565b600560019054906101000a900473ffffffffffffffffffffffffffffffffffffffff1681565b600480546108d690610e07565b80601f016020809104026020016040519081016040528092919081815260200182805461090290610e07565b801561094d5780601f106109245761010080835404028352916020019161094d565b820191905f5260205f20905b81548152906001019060200180831161093057829003601f168201915b505050505081565b5f8160015f3373ffffffffffffffffffffffffffffffffffffffff1673ffffffffffffffffffffffffffffffffffffffff1681526020019081526020015f205410156109d6576040517f08c379a00000000000000000000000000000000000000000000000000000000081526004016109cd90610f51565b60405180910390fd5b8160015f3373ffffffffffffffffffffffffffffffffffffffff1673ffffffffffffffffffffffffffffffffffffffff1681526020019081526020015f205f828254610a229190610f9c565b925050819055508160015f8573ffffffffffffffffffffffffffffffffffffffff1673ffffffffffffffffffffffffffffffffffffffff1681526020019081526020015f205f828254610a759190610fcf565b925050819055508273ffffffffffffffffffffffffffffffffffffffff163373ffffffffffffffffffffffffffffffffffffffff167fddf252ad1be2c89b69c2b068fc378daa952ba7f163c4a11628f55a4df523b3ef84604051610ad99190610cac565b60405180910390a36001905092915050565b6002602052815f5260405f20602052805f5260405f205f91509150505481565b5f81519050919050565b5f82825260208201905092915050565b8281835e5f83830152505050565b5f601f19601f8301169050919050565b5f610b4d82610b0b565b610b578185610b15565b9350610b67818560208601610b25565b610b7081610b33565b840191505092915050565b5f6020820190508181035f830152610b938184610b43565b905092915050565b5f5ffd5b5f73ffffffffffffffffffffffffffffffffffffffff82169050919050565b5f610bc882610b9f565b9050919050565b610bd881610bbe565b8114610be2575f5ffd5b50565b5f81359050610bf381610bcf565b92915050565b5f819050919050565b610c0b81610bf9565b8114610c15575f5ffd5b50565b5f81359050610c2681610c02565b92915050565b5f5f60408385031215610c4257610c41610b9b565b5b5f610c4f85828601610be5565b9250506020610c6085828601610c18565b9150509250929050565b5f8115159050919050565b610c7e81610c6a565b82525050565b5f602082019050610c975f830184610c75565b92915050565b610ca681610bf9565b82525050565b5f602082019050610cbf5f830184610c9d565b92915050565b5f5f5f60608486031215610cdc57610cdb610b9b565b5b5f610ce986828701610be5565b9350506020610cfa86828701610be5565b9250506040610d0b86828701610c18565b9150509250925092565b5f60ff82169050919050565b610d2a81610d15565b82525050565b5f602082019050610d435f830184610d21565b92915050565b5f60208284031215610d5e57610d5d610b9b565b5b5f610d6b84828501610be5565b91505092915050565b610d7d81610bbe565b82525050565b5f602082019050610d965f830184610d74565b92915050565b5f5f60408385031215610db257610db1610b9b565b5b5f610dbf85828601610be5565b9250506020610dd085828601610be5565b9150509250929050565b7f4e487b71000000000000000000000000000000000000000000000000000000005f52602260045260245ffd5b5f6002820490506001821680610e1e57607f821691505b602082108103610e3157610e30610dda565b5b50919050565b7f496e76616c6964206164647265737300000000000000000000000000000000005f82015250565b5f610e6b600f83610b15565b9150610e7682610e37565b602082019050919050565b5f6020820190508181035f830152610e9881610e5f565b9050919050565b7f496e73756666696369656e7420616c6c6f77616e6365000000000000000000005f82015250565b5f610ed3601683610b15565b9150610ede82610e9f565b602082019050919050565b5f6020820190508181035f830152610f0081610ec7565b9050919050565b7f496e73756666696369656e742062616c616e63650000000000000000000000005f82015250565b5f610f3b601483610b15565b9150610f4682610f07565b602082019050919050565b5f6020820190508181035f830152610f6881610f2f565b9050919050565b7f4e487b71000000000000000000000000000000000000000000000000000000005f52601160045260245ffd5b5f610fa682610bf9565b9150610fb183610bf9565b9250828203905081811115610fc957610fc8610f6f565b5b92915050565b5f610fd982610bf9565b9150610fe483610bf9565b9250828201905080821115610ffc57610ffb610f6f565b5b92915050565b7f4e6f7420746865204f776e6572000000000000000000000000000000000000005f82015250565b5f611036600d83610b15565b915061104182611002565b602082019050919050565b5f6020820190508181035f8301526110638161102a565b905091905056fea26469706673582212208f24a09e20ead3ef96f9bda65e3aa7f430a8a0d2666c397d6d0693a1329d53c864736f6c634300081b0033","linkReferences":{}},"methodIdentifiers":{"allowance(address,address)":"dd62ed3e","approve(address,uint256)":"095ea7b3","balanceOf(address)":"70a08231","decimals()":"313ce567","mintToken(address,uint256)":"79c65068","name()":"06fdde03","owner()":"8da5cb5b","symbol()":"95d89b41","totalSupply()":"18160ddd","transfer(address,uint256)":"a9059cbb","transferFrom(address,address,uint256)":"23b872dd"},"id":19}